{
  "_format": "hh-sol-artifact-1",
  "contractName": "VerifiableCredentials",
  "sourceName": "contracts/VerifiableCredentials.sol",
  "abi": [
    {
      "anonymous": false,
      "inputs": [
        {
          "indexed": true,
          "internalType": "address",
          "name": "user",
          "type": "address"
        },
        {
          "indexed": false,
          "internalType": "string",
          "name": "credentialType",
          "type": "string"
        },
        {
          "indexed": false,
          "internalType": "bytes32",
          "name": "credentialHash",
          "type": "bytes32"
        },
        {
          "indexed": false,
          "internalType": "address",
          "name": "issuer",
          "type": "address"
        }
      ],
      "name": "CredentialIssued",
      "type": "event"
    },
    {
      "anonymous": false,
      "inputs": [
        {
          "indexed": true,
          "internalType": "address",
          "name": "user",
          "type": "address"
        },
        {
          "indexed": false,
          "internalType": "string",
          "name": "credentialType",
          "type": "string"
        }
      ],
      "name": "CredentialRevoked",
      "type": "event"
    },
    {
      "inputs": [
        {
          "internalType": "address",
          "name": "user",
          "type": "address"
        },
        {
          "internalType": "string",
          "name": "credentialType",
          "type": "string"
        },
        {
          "internalType": "bytes32",
          "name": "credentialHash",
          "type": "bytes32"
        }
      ],
      "name": "issueCredential",
      "outputs": [],
      "stateMutability": "nonpayable",
      "type": "function"
    },
    {
      "inputs": [
        {
          "internalType": "address",
          "name": "user",
          "type": "address"
        },
        {
          "internalType": "string",
          "name": "credentialType",
          "type": "string"
        }
      ],
      "name": "revokeCredential",
      "outputs": [],
      "stateMutability": "nonpayable",
      "type": "function"
    },
    {
      "inputs": [
        {
          "internalType": "address",
          "name": "",
          "type": "address"
        },
        {
          "internalType": "uint256",
          "name": "",
          "type": "uint256"
        }
      ],
      "name": "userCredentials",
      "outputs": [
        {
          "internalType": "string",
          "name": "credentialType",
          "type": "string"
        },
        {
          "internalType": "bytes32",
          "name": "credentialHash",
          "type": "bytes32"
        },
        {
          "internalType": "address",
          "name": "issuer",
          "type": "address"
        },
        {
          "internalType": "bool",
          "name": "valid",
          "type": "bool"
        }
      ],
      "stateMutability": "view",
      "type": "function"
    },
    {
      "inputs": [
        {
          "internalType": "address",
          "name": "user",
          "type": "address"
        },
        {
          "internalType": "string",
          "name": "credentialType",
          "type": "string"
        }
      ],
      "name": "verifyCredential",
      "outputs": [
        {
          "internalType": "bool",
          "name": "",
          "type": "bool"
        }
      ],
      "stateMutability": "view",
      "type": "function"
    }
  ],
  "bytecode": "0x608060405234801561001057600080fd5b506110ac806100206000396000f3fe608060405234801561001057600080fd5b506004361061004c5760003560e01c8063209c7ad1146100515780639364ace914610081578063b94f550c146100b4578063f10705e6146100d0575b600080fd5b61006b6004803603810190610066919061087d565b6100ec565b60405161007891906108f4565b60405180910390f35b61009b60048036038101906100969190610945565b61021a565b6040516100ab9493929190610a2c565b60405180910390f35b6100ce60048036038101906100c9919061087d565b61031c565b005b6100ea60048036038101906100e59190610aa4565b610544565b005b6000806000808573ffffffffffffffffffffffffffffffffffffffff1673ffffffffffffffffffffffffffffffffffffffff168152602001908152602001600020905060005b818054905081101561020d578360405160200161014f9190610b4f565b6040516020818303038152906040528051906020012082828154811061017857610177610b66565b5b90600052602060002090600302016000016040516020016101999190610c8d565b604051602081830303815290604052805190602001201480156101ea57508181815481106101ca576101c9610b66565b5b906000526020600020906003020160020160149054906101000a900460ff165b156101fa57600192505050610214565b808061020590610cd3565b915050610132565b5060009150505b92915050565b6000602052816000526040600020818154811061023657600080fd5b90600052602060002090600302016000915091505080600001805461025a90610bc4565b80601f016020809104026020016040519081016040528092919081815260200182805461028690610bc4565b80156102d35780601f106102a8576101008083540402835291602001916102d3565b820191906000526020600020905b8154815290600101906020018083116102b657829003601f168201915b5050505050908060010154908060020160009054906101000a900473ffffffffffffffffffffffffffffffffffffffff16908060020160149054906101000a900460ff16905084565b60008060008473ffffffffffffffffffffffffffffffffffffffff1673ffffffffffffffffffffffffffffffffffffffff168152602001908152602001600020905060005b8180549050811015610504578260405160200161037e9190610b4f565b604051602081830303815290604052805190602001208282815481106103a7576103a6610b66565b5b90600052602060002090600302016000016040516020016103c89190610c8d565b6040516020818303038152906040528051906020012014801561045a57503373ffffffffffffffffffffffffffffffffffffffff168282815481106104105761040f610b66565b5b906000526020600020906003020160020160009054906101000a900473ffffffffffffffffffffffffffffffffffffffff1673ffffffffffffffffffffffffffffffffffffffff16145b156104f157600082828154811061047457610473610b66565b5b906000526020600020906003020160020160146101000a81548160ff0219169083151502179055508373ffffffffffffffffffffffffffffffffffffffff167f47b59d3599ed2ba34f6334425c05eff11ba50848c9b4c4a10d73ddcc9c8c8d02846040516104e29190610d1b565b60405180910390a25050610540565b80806104fc90610cd3565b915050610361565b506040517f08c379a000000000000000000000000000000000000000000000000000000000815260040161053790610daf565b60405180910390fd5b5050565b6000808473ffffffffffffffffffffffffffffffffffffffff1673ffffffffffffffffffffffffffffffffffffffff16815260200190815260200160002060405180608001604052808481526020018381526020013373ffffffffffffffffffffffffffffffffffffffff16815260200160011515815250908060018154018082558091505060019003906000526020600020906003020160009091909190915060008201518160000190816105fa9190610f66565b506020820151816001015560408201518160020160006101000a81548173ffffffffffffffffffffffffffffffffffffffff021916908373ffffffffffffffffffffffffffffffffffffffff16021790555060608201518160020160146101000a81548160ff02191690831515021790555050508273ffffffffffffffffffffffffffffffffffffffff167f39964509c0da7088895ceb23e45754d7e92f232f4cbea4de2c89da77b962761c8383336040516106b893929190611038565b60405180910390a2505050565b6000604051905090565b600080fd5b600080fd5b600073ffffffffffffffffffffffffffffffffffffffff82169050919050565b6000610704826106d9565b9050919050565b610714816106f9565b811461071f57600080fd5b50565b6000813590506107318161070b565b92915050565b600080fd5b600080fd5b6000601f19601f8301169050919050565b7f4e487b7100000000000000000000000000000000000000000000000000000000600052604160045260246000fd5b61078a82610741565b810181811067ffffffffffffffff821117156107a9576107a8610752565b5b80604052505050565b60006107bc6106c5565b90506107c88282610781565b919050565b600067ffffffffffffffff8211156107e8576107e7610752565b5b6107f182610741565b9050602081019050919050565b82818337600083830152505050565b600061082061081b846107cd565b6107b2565b90508281526020810184848401111561083c5761083b61073c565b5b6108478482856107fe565b509392505050565b600082601f83011261086457610863610737565b5b813561087484826020860161080d565b91505092915050565b60008060408385031215610894576108936106cf565b5b60006108a285828601610722565b925050602083013567ffffffffffffffff8111156108c3576108c26106d4565b5b6108cf8582860161084f565b9150509250929050565b60008115159050919050565b6108ee816108d9565b82525050565b600060208201905061090960008301846108e5565b92915050565b6000819050919050565b6109228161090f565b811461092d57600080fd5b50565b60008135905061093f81610919565b92915050565b6000806040838503121561095c5761095b6106cf565b5b600061096a85828601610722565b925050602061097b85828601610930565b9150509250929050565b600081519050919050565b600082825260208201905092915050565b60005b838110156109bf5780820151818401526020810190506109a4565b60008484015250505050565b60006109d682610985565b6109e08185610990565b93506109f08185602086016109a1565b6109f981610741565b840191505092915050565b6000819050919050565b610a1781610a04565b82525050565b610a26816106f9565b82525050565b60006080820190508181036000830152610a4681876109cb565b9050610a556020830186610a0e565b610a626040830185610a1d565b610a6f60608301846108e5565b95945050505050565b610a8181610a04565b8114610a8c57600080fd5b50565b600081359050610a9e81610a78565b92915050565b600080600060608486031215610abd57610abc6106cf565b5b6000610acb86828701610722565b935050602084013567ffffffffffffffff811115610aec57610aeb6106d4565b5b610af88682870161084f565b9250506040610b0986828701610a8f565b9150509250925092565b600081905092915050565b6000610b2982610985565b610b338185610b13565b9350610b438185602086016109a1565b80840191505092915050565b6000610b5b8284610b1e565b915081905092915050565b7f4e487b7100000000000000000000000000000000000000000000000000000000600052603260045260246000fd5b7f4e487b7100000000000000000000000000000000000000000000000000000000600052602260045260246000fd5b60006002820490506001821680610bdc57607f821691505b602082108103610bef57610bee610b95565b5b50919050565b60008190508160005260206000209050919050565b60008154610c1781610bc4565b610c218186610b13565b94506001821660008114610c3c5760018114610c5157610c84565b60ff1983168652811515820286019350610c84565b610c5a85610bf5565b60005b83811015610c7c57815481890152600182019150602081019050610c5d565b838801955050505b50505092915050565b6000610c998284610c0a565b915081905092915050565b7f4e487b7100000000000000000000000000000000000000000000000000000000600052601160045260246000fd5b6000610cde8261090f565b91507fffffffffffffffffffffffffffffffffffffffffffffffffffffffffffffffff8203610d1057610d0f610ca4565b5b600182019050919050565b60006020820190508181036000830152610d3581846109cb565b905092915050565b7f43726564656e7469616c206e6f7420666f756e64206f7220756e617574686f7260008201527f697a656400000000000000000000000000000000000000000000000000000000602082015250565b6000610d99602483610990565b9150610da482610d3d565b604082019050919050565b60006020820190508181036000830152610dc881610d8c565b9050919050565b60006020601f8301049050919050565b600082821b905092915050565b600060088302610e1c7fffffffffffffffffffffffffffffffffffffffffffffffffffffffffffffffff82610ddf565b610e268683610ddf565b95508019841693508086168417925050509392505050565b6000819050919050565b6000610e63610e5e610e598461090f565b610e3e565b61090f565b9050919050565b6000819050919050565b610e7d83610e48565b610e91610e8982610e6a565b848454610dec565b825550505050565b600090565b610ea6610e99565b610eb1818484610e74565b505050565b5b81811015610ed557610eca600082610e9e565b600181019050610eb7565b5050565b601f821115610f1a57610eeb81610bf5565b610ef484610dcf565b81016020851015610f03578190505b610f17610f0f85610dcf565b830182610eb6565b50505b505050565b600082821c905092915050565b6000610f3d60001984600802610f1f565b1980831691505092915050565b6000610f568383610f2c565b9150826002028217905092915050565b610f6f82610985565b67ffffffffffffffff811115610f8857610f87610752565b5b610f928254610bc4565b610f9d828285610ed9565b600060209050601f831160018114610fd05760008415610fbe578287015190505b610fc88582610f4a565b865550611030565b601f198416610fde86610bf5565b60005b8281101561100657848901518255600182019150602085019450602081019050610fe1565b86831015611023578489015161101f601f891682610f2c565b8355505b6001600288020188555050505b505050505050565b6000606082019050818103600083015261105281866109cb565b90506110616020830185610a0e565b61106e6040830184610a1d565b94935050505056fea2646970667358221220f6d466dcbd26dd73710462011be376df1946e4091c8a8c87cb2ad38638e112d964736f6c63430008140033",
  "linkReferences": {},
  "deployedLinkReferences": {}
}