{
  "_format": "hh-sol-artifact-1",
  "contractName": "BaseDID",
  "sourceName": "src/contracts/BaseDID.sol",
  "abi": [
    {
      "anonymous": false,
      "inputs": [
        {
          "indexed": true,
          "internalType": "address",
          "name": "owner",
          "type": "address"
        },
        {
          "indexed": true,
          "internalType": "uint256",
          "name": "didIndex",
          "type": "uint256"
        },
        {
          "indexed": true,
          "internalType": "address",
          "name": "user",
          "type": "address"
        },
        {
          "indexed": false,
          "internalType": "string",
          "name": "attribute",
          "type": "string"
        }
      ],
      "name": "AccessGranted",
      "type": "event"
    },
    {
      "anonymous": false,
      "inputs": [
        {
          "indexed": true,
          "internalType": "address",
          "name": "owner",
          "type": "address"
        },
        {
          "indexed": true,
          "internalType": "uint256",
          "name": "didIndex",
          "type": "uint256"
        },
        {
          "indexed": true,
          "internalType": "address",
          "name": "user",
          "type": "address"
        },
        {
          "indexed": false,
          "internalType": "string",
          "name": "attribute",
          "type": "string"
        }
      ],
      "name": "AccessRevoked",
      "type": "event"
    },
    {
      "anonymous": false,
      "inputs": [
        {
          "indexed": true,
          "internalType": "address",
          "name": "owner",
          "type": "address"
        },
        {
          "indexed": false,
          "internalType": "string",
          "name": "identifier",
          "type": "string"
        }
      ],
      "name": "DIDCreated",
      "type": "event"
    },
    {
      "inputs": [
        {
          "internalType": "address",
          "name": "",
          "type": "address"
        },
        {
          "internalType": "uint256",
          "name": "",
          "type": "uint256"
        },
        {
          "internalType": "address",
          "name": "",
          "type": "address"
        },
        {
          "internalType": "string",
          "name": "",
          "type": "string"
        }
      ],
      "name": "accessControl",
      "outputs": [
        {
          "internalType": "bool",
          "name": "",
          "type": "bool"
        }
      ],
      "stateMutability": "view",
      "type": "function"
    },
    {
      "inputs": [
        {
          "internalType": "address",
          "name": "owner",
          "type": "address"
        }
      ],
      "name": "getUserDIDs",
      "outputs": [
        {
          "components": [
            {
              "internalType": "string",
              "name": "identifier",
              "type": "string"
            },
            {
              "internalType": "bool",
              "name": "active",
              "type": "bool"
            },
            {
              "internalType": "uint256",
              "name": "createdAt",
              "type": "uint256"
            },
            {
              "internalType": "uint256",
              "name": "updatedAt",
              "type": "uint256"
            }
          ],
          "internalType": "struct BaseDID.DID[]",
          "name": "",
          "type": "tuple[]"
        }
      ],
      "stateMutability": "view",
      "type": "function"
    },
    {
      "inputs": [
        {
          "internalType": "address",
          "name": "owner",
          "type": "address"
        },
        {
          "internalType": "uint256",
          "name": "didIndex",
          "type": "uint256"
        },
        {
          "internalType": "address",
          "name": "user",
          "type": "address"
        },
        {
          "internalType": "string",
          "name": "attribute",
          "type": "string"
        }
      ],
      "name": "hasAccess",
      "outputs": [
        {
          "internalType": "bool",
          "name": "",
          "type": "bool"
        }
      ],
      "stateMutability": "view",
      "type": "function"
    },
    {
      "inputs": [
        {
          "internalType": "address",
          "name": "",
          "type": "address"
        },
        {
          "internalType": "uint256",
          "name": "",
          "type": "uint256"
        }
      ],
      "name": "userDIDs",
      "outputs": [
        {
          "internalType": "string",
          "name": "identifier",
          "type": "string"
        },
        {
          "internalType": "bool",
          "name": "active",
          "type": "bool"
        },
        {
          "internalType": "uint256",
          "name": "createdAt",
          "type": "uint256"
        },
        {
          "internalType": "uint256",
          "name": "updatedAt",
          "type": "uint256"
        }
      ],
      "stateMutability": "view",
      "type": "function"
    }
  ],
  "bytecode": "0x608060405234801561001057600080fd5b50610afc806100206000396000f3fe608060405234801561001057600080fd5b506004361061004c5760003560e01c806321c3948a146100515780636aab3cef14610081578063cfbb90a2146100b4578063fb99d007146100e4575b600080fd5b61006b600480360381019061006691906104e8565b610114565b60405161007891906106fe565b60405180910390f35b61009b6004803603810190610096919061074c565b610272565b6040516100ab94939291906107f4565b60405180910390f35b6100ce60048036038101906100c99190610975565b610354565b6040516100db91906109f8565b60405180910390f35b6100fe60048036038101906100f99190610975565b6103b3565b60405161010b91906109f8565b60405180910390f35b60606000808373ffffffffffffffffffffffffffffffffffffffff1673ffffffffffffffffffffffffffffffffffffffff168152602001908152602001600020805480602002602001604051908101604052809291908181526020016000905b8282101561026757838290600052602060002090600402016040518060800160405290816000820180546101a790610a42565b80601f01602080910402602001604051908101604052809291908181526020018280546101d390610a42565b80156102205780601f106101f557610100808354040283529160200191610220565b820191906000526020600020905b81548152906001019060200180831161020357829003601f168201915b505050505081526020016001820160009054906101000a900460ff161515151581526020016002820154815260200160038201548152505081526020019060010190610174565b505050509050919050565b6000602052816000526040600020818154811061028e57600080fd5b9060005260206000209060040201600091509150508060000180546102b290610a42565b80601f01602080910402602001604051908101604052809291908181526020018280546102de90610a42565b801561032b5780601f106103005761010080835404028352916020019161032b565b820191906000526020600020905b81548152906001019060200180831161030e57829003601f168201915b5050505050908060010160009054906101000a900460ff16908060020154908060030154905084565b60016020528360005260406000206020528260005260406000206020528160005260406000208180516020810182018051848252602083016020850120818352809550505050505060009350935050509054906101000a900460ff1681565b6000600160008673ffffffffffffffffffffffffffffffffffffffff1673ffffffffffffffffffffffffffffffffffffffff168152602001908152602001600020600085815260200190815260200160002060008473ffffffffffffffffffffffffffffffffffffffff1673ffffffffffffffffffffffffffffffffffffffff168152602001908152602001600020826040516104509190610aaf565b908152602001604051809103902060009054906101000a900460ff169050949350505050565b6000604051905090565b600080fd5b600080fd5b600073ffffffffffffffffffffffffffffffffffffffff82169050919050565b60006104b58261048a565b9050919050565b6104c5816104aa565b81146104d057600080fd5b50565b6000813590506104e2816104bc565b92915050565b6000602082840312156104fe576104fd610480565b5b600061050c848285016104d3565b91505092915050565b600081519050919050565b600082825260208201905092915050565b6000819050602082019050919050565b600081519050919050565b600082825260208201905092915050565b60005b8381101561057b578082015181840152602081019050610560565b60008484015250505050565b6000601f19601f8301169050919050565b60006105a382610541565b6105ad818561054c565b93506105bd81856020860161055d565b6105c681610587565b840191505092915050565b60008115159050919050565b6105e6816105d1565b82525050565b6000819050919050565b6105ff816105ec565b82525050565b600060808301600083015184820360008601526106228282610598565b915050602083015161063760208601826105dd565b50604083015161064a60408601826105f6565b50606083015161065d60608601826105f6565b508091505092915050565b60006106748383610605565b905092915050565b6000602082019050919050565b600061069482610515565b61069e8185610520565b9350836020820285016106b085610531565b8060005b858110156106ec57848403895281516106cd8582610668565b94506106d88361067c565b925060208a019950506001810190506106b4565b50829750879550505050505092915050565b600060208201905081810360008301526107188184610689565b905092915050565b610729816105ec565b811461073457600080fd5b50565b60008135905061074681610720565b92915050565b6000806040838503121561076357610762610480565b5b6000610771858286016104d3565b925050602061078285828601610737565b9150509250929050565b600082825260208201905092915050565b60006107a882610541565b6107b2818561078c565b93506107c281856020860161055d565b6107cb81610587565b840191505092915050565b6107df816105d1565b82525050565b6107ee816105ec565b82525050565b6000608082019050818103600083015261080e818761079d565b905061081d60208301866107d6565b61082a60408301856107e5565b61083760608301846107e5565b95945050505050565b600080fd5b600080fd5b7f4e487b7100000000000000000000000000000000000000000000000000000000600052604160045260246000fd5b61088282610587565b810181811067ffffffffffffffff821117156108a1576108a061084a565b5b80604052505050565b60006108b4610476565b90506108c08282610879565b919050565b600067ffffffffffffffff8211156108e0576108df61084a565b5b6108e982610587565b9050602081019050919050565b82818337600083830152505050565b6000610918610913846108c5565b6108aa565b90508281526020810184848401111561093457610933610845565b5b61093f8482856108f6565b509392505050565b600082601f83011261095c5761095b610840565b5b813561096c848260208601610905565b91505092915050565b6000806000806080858703121561098f5761098e610480565b5b600061099d878288016104d3565b94505060206109ae87828801610737565b93505060406109bf878288016104d3565b925050606085013567ffffffffffffffff8111156109e0576109df610485565b5b6109ec87828801610947565b91505092959194509250565b6000602082019050610a0d60008301846107d6565b92915050565b7f4e487b7100000000000000000000000000000000000000000000000000000000600052602260045260246000fd5b60006002820490506001821680610a5a57607f821691505b602082108103610a6d57610a6c610a13565b5b50919050565b600081905092915050565b6000610a8982610541565b610a938185610a73565b9350610aa381856020860161055d565b80840191505092915050565b6000610abb8284610a7e565b91508190509291505056fea264697066735822122082764ec17cb3f3021c78f36a054cab57d059fec20ad7891ff018e3cb44f180aa64736f6c63430008140033",
  "linkReferences": {},
  "deployedLinkReferences": {}
}