{
  "_format": "hh-sol-artifact-1",
  "contractName": "IdentityRecovery",
  "sourceName": "contracts/Recovery.sol",
  "abi": [
    {
      "anonymous": false,
      "inputs": [
        {
          "indexed": true,
          "internalType": "address",
          "name": "user",
          "type": "address"
        },
        {
          "indexed": false,
          "internalType": "address",
          "name": "guardian",
          "type": "address"
        }
      ],
      "name": "GuardianAdded",
      "type": "event"
    },
    {
      "anonymous": false,
      "inputs": [
        {
          "indexed": true,
          "internalType": "address",
          "name": "user",
          "type": "address"
        },
        {
          "indexed": false,
          "internalType": "address",
          "name": "newOwner",
          "type": "address"
        }
      ],
      "name": "IdentityRecovered",
      "type": "event"
    },
    {
      "anonymous": false,
      "inputs": [
        {
          "indexed": true,
          "internalType": "address",
          "name": "user",
          "type": "address"
        },
        {
          "indexed": false,
          "internalType": "address",
          "name": "newOwner",
          "type": "address"
        },
        {
          "indexed": false,
          "internalType": "uint8",
          "name": "approvals",
          "type": "uint8"
        }
      ],
      "name": "RecoveryApproved",
      "type": "event"
    },
    {
      "anonymous": false,
      "inputs": [
        {
          "indexed": true,
          "internalType": "address",
          "name": "user",
          "type": "address"
        },
        {
          "indexed": false,
          "internalType": "address",
          "name": "newOwner",
          "type": "address"
        }
      ],
      "name": "RecoveryRequested",
      "type": "event"
    },
    {
      "inputs": [
        {
          "internalType": "address",
          "name": "guardian",
          "type": "address"
        }
      ],
      "name": "addGuardian",
      "outputs": [],
      "stateMutability": "nonpayable",
      "type": "function"
    },
    {
      "inputs": [
        {
          "internalType": "address",
          "name": "user",
          "type": "address"
        }
      ],
      "name": "approveRecovery",
      "outputs": [],
      "stateMutability": "nonpayable",
      "type": "function"
    },
    {
      "inputs": [
        {
          "internalType": "address",
          "name": "",
          "type": "address"
        },
        {
          "internalType": "uint256",
          "name": "",
          "type": "uint256"
        }
      ],
      "name": "guardians",
      "outputs": [
        {
          "internalType": "address",
          "name": "",
          "type": "address"
        }
      ],
      "stateMutability": "view",
      "type": "function"
    },
    {
      "inputs": [
        {
          "internalType": "address",
          "name": "",
          "type": "address"
        }
      ],
      "name": "recoveryRequests",
      "outputs": [
        {
          "internalType": "address",
          "name": "newOwner",
          "type": "address"
        },
        {
          "internalType": "uint8",
          "name": "approvals",
          "type": "uint8"
        },
        {
          "internalType": "bool",
          "name": "active",
          "type": "bool"
        }
      ],
      "stateMutability": "view",
      "type": "function"
    },
    {
      "inputs": [
        {
          "internalType": "address",
          "name": "newOwner",
          "type": "address"
        }
      ],
      "name": "requestRecovery",
      "outputs": [],
      "stateMutability": "nonpayable",
      "type": "function"
    }
  ],
  "bytecode": "0x608060405234801561001057600080fd5b50610eb1806100206000396000f3fe608060405234801561001057600080fd5b50600436106100575760003560e01c806347d05bf81461005c578063a1b097c51461008c578063a526d83b146100be578063cbc3b3c2146100da578063e24ba265146100f6575b600080fd5b61007660048036038101906100719190610a97565b610112565b6040516100839190610ae6565b60405180910390f35b6100a660048036038101906100a19190610b01565b610160565b6040516100b593929190610b65565b60405180910390f35b6100d860048036038101906100d39190610b01565b6101c4565b005b6100f460048036038101906100ef9190610b01565b610322565b005b610110600480360381019061010b9190610b01565b610827565b005b6000602052816000526040600020818154811061012e57600080fd5b906000526020600020016000915091509054906101000a900473ffffffffffffffffffffffffffffffffffffffff1681565b60016020528060005260406000206000915090508060000160009054906101000a900473ffffffffffffffffffffffffffffffffffffffff16908060000160149054906101000a900460ff16908060000160159054906101000a900460ff16905083565b3373ffffffffffffffffffffffffffffffffffffffff168173ffffffffffffffffffffffffffffffffffffffff1603610232576040517f08c379a000000000000000000000000000000000000000000000000000000000815260040161022990610c1f565b60405180910390fd5b6000803373ffffffffffffffffffffffffffffffffffffffff1673ffffffffffffffffffffffffffffffffffffffff168152602001908152602001600020819080600181540180825580915050600190039060005260206000200160009091909190916101000a81548173ffffffffffffffffffffffffffffffffffffffff021916908373ffffffffffffffffffffffffffffffffffffffff1602179055503373ffffffffffffffffffffffffffffffffffffffff167fbc3292102fa77e083913064b282926717cdfaede4d35f553d66366c0a3da755a826040516103179190610ae6565b60405180910390a250565b600160008273ffffffffffffffffffffffffffffffffffffffff1673ffffffffffffffffffffffffffffffffffffffff16815260200190815260200160002060000160159054906101000a900460ff166103b1576040517f08c379a00000000000000000000000000000000000000000000000000000000081526004016103a890610c8b565b60405180910390fd5b6000805b6000808473ffffffffffffffffffffffffffffffffffffffff1673ffffffffffffffffffffffffffffffffffffffff168152602001908152602001600020805490508110156104c7573373ffffffffffffffffffffffffffffffffffffffff166000808573ffffffffffffffffffffffffffffffffffffffff1673ffffffffffffffffffffffffffffffffffffffff168152602001908152602001600020828154811061046557610464610cab565b5b9060005260206000200160009054906101000a900473ffffffffffffffffffffffffffffffffffffffff1673ffffffffffffffffffffffffffffffffffffffff16036104b457600191506104c7565b80806104bf90610d09565b9150506103b5565b5080610508576040517f08c379a00000000000000000000000000000000000000000000000000000000081526004016104ff90610d9d565b60405180910390fd5b600160008373ffffffffffffffffffffffffffffffffffffffff1673ffffffffffffffffffffffffffffffffffffffff168152602001908152602001600020600001601481819054906101000a900460ff168092919061056790610dbd565b91906101000a81548160ff021916908360ff160217905550508173ffffffffffffffffffffffffffffffffffffffff167f93a8f3acc471767423e482b998d4f8d2dd61068cf066749b4d296f36bb64ad00600160008573ffffffffffffffffffffffffffffffffffffffff1673ffffffffffffffffffffffffffffffffffffffff16815260200190815260200160002060000160009054906101000a900473ffffffffffffffffffffffffffffffffffffffff16600160008673ffffffffffffffffffffffffffffffffffffffff1673ffffffffffffffffffffffffffffffffffffffff16815260200190815260200160002060000160149054906101000a900460ff16604051610679929190610de6565b60405180910390a26002600160008473ffffffffffffffffffffffffffffffffffffffff1673ffffffffffffffffffffffffffffffffffffffff16815260200190815260200160002060000160149054906101000a900460ff1660ff1610610823576000600160008473ffffffffffffffffffffffffffffffffffffffff1673ffffffffffffffffffffffffffffffffffffffff16815260200190815260200160002060000160009054906101000a900473ffffffffffffffffffffffffffffffffffffffff169050600160008473ffffffffffffffffffffffffffffffffffffffff1673ffffffffffffffffffffffffffffffffffffffff168152602001908152602001600020600080820160006101000a81549073ffffffffffffffffffffffffffffffffffffffff02191690556000820160146101000a81549060ff02191690556000820160156101000a81549060ff021916905550508273ffffffffffffffffffffffffffffffffffffffff167fa21ddbc03abf84198e4d9ac1758f66585d389637848501302cebbcbe38bf8471826040516108199190610ae6565b60405180910390a2505b5050565b60016000803373ffffffffffffffffffffffffffffffffffffffff1673ffffffffffffffffffffffffffffffffffffffff16815260200190815260200160002080549050116108ab576040517f08c379a00000000000000000000000000000000000000000000000000000000081526004016108a290610e5b565b60405180910390fd5b60405180606001604052808273ffffffffffffffffffffffffffffffffffffffff168152602001600060ff16815260200160011515815250600160003373ffffffffffffffffffffffffffffffffffffffff1673ffffffffffffffffffffffffffffffffffffffff16815260200190815260200160002060008201518160000160006101000a81548173ffffffffffffffffffffffffffffffffffffffff021916908373ffffffffffffffffffffffffffffffffffffffff16021790555060208201518160000160146101000a81548160ff021916908360ff16021790555060408201518160000160156101000a81548160ff0219169083151502179055509050503373ffffffffffffffffffffffffffffffffffffffff167fc055ed6d0628a48975ebb9ce14f82b6bb30932b24f11610109322b567d6befdc826040516109f39190610ae6565b60405180910390a250565b600080fd5b600073ffffffffffffffffffffffffffffffffffffffff82169050919050565b6000610a2e82610a03565b9050919050565b610a3e81610a23565b8114610a4957600080fd5b50565b600081359050610a5b81610a35565b92915050565b6000819050919050565b610a7481610a61565b8114610a7f57600080fd5b50565b600081359050610a9181610a6b565b92915050565b60008060408385031215610aae57610aad6109fe565b5b6000610abc85828601610a4c565b9250506020610acd85828601610a82565b9150509250929050565b610ae081610a23565b82525050565b6000602082019050610afb6000830184610ad7565b92915050565b600060208284031215610b1757610b166109fe565b5b6000610b2584828501610a4c565b91505092915050565b600060ff82169050919050565b610b4481610b2e565b82525050565b60008115159050919050565b610b5f81610b4a565b82525050565b6000606082019050610b7a6000830186610ad7565b610b876020830185610b3b565b610b946040830184610b56565b949350505050565b600082825260208201905092915050565b7f43616e6e6f742061646420796f757273656c662061732061206775617264696160008201527f6e00000000000000000000000000000000000000000000000000000000000000602082015250565b6000610c09602183610b9c565b9150610c1482610bad565b604082019050919050565b60006020820190508181036000830152610c3881610bfc565b9050919050565b7f4e6f20616374697665207265636f766572792072657175657374000000000000600082015250565b6000610c75601a83610b9c565b9150610c8082610c3f565b602082019050919050565b60006020820190508181036000830152610ca481610c68565b9050919050565b7f4e487b7100000000000000000000000000000000000000000000000000000000600052603260045260246000fd5b7f4e487b7100000000000000000000000000000000000000000000000000000000600052601160045260246000fd5b6000610d1482610a61565b91507fffffffffffffffffffffffffffffffffffffffffffffffffffffffffffffffff8203610d4657610d45610cda565b5b600182019050919050565b7f4e6f74206120677561726469616e000000000000000000000000000000000000600082015250565b6000610d87600e83610b9c565b9150610d9282610d51565b602082019050919050565b60006020820190508181036000830152610db681610d7a565b9050919050565b6000610dc882610b2e565b915060ff8203610ddb57610dda610cda565b5b600182019050919050565b6000604082019050610dfb6000830185610ad7565b610e086020830184610b3b565b9392505050565b7f4174206c65617374203220677561726469616e73207265717569726564000000600082015250565b6000610e45601d83610b9c565b9150610e5082610e0f565b602082019050919050565b60006020820190508181036000830152610e7481610e38565b905091905056fea2646970667358221220e6c88525ad38ff6dd3e7920512a81689a52523f7612124b82987079e1011dd2164736f6c63430008140033",
  "linkReferences": {},
  "deployedLinkReferences": {}
}