{
  "_format": "hh-sol-artifact-1",
  "contractName": "AadharDID",
  "sourceName": "src/contracts/AadharDID.sol",
  "abi": [
    {
      "anonymous": false,
      "inputs": [
        {
          "indexed": true,
          "internalType": "address",
          "name": "owner",
          "type": "address"
        },
        {
          "indexed": false,
          "internalType": "string",
          "name": "identifier",
          "type": "string"
        },
        {
          "indexed": false,
          "internalType": "string",
          "name": "aadharNumber",
          "type": "string"
        }
      ],
      "name": "AadharCreated",
      "type": "event"
    },
    {
      "anonymous": false,
      "inputs": [
        {
          "indexed": true,
          "internalType": "address",
          "name": "owner",
          "type": "address"
        },
        {
          "indexed": true,
          "internalType": "uint256",
          "name": "didIndex",
          "type": "uint256"
        },
        {
          "indexed": true,
          "internalType": "address",
          "name": "user",
          "type": "address"
        },
        {
          "indexed": false,
          "internalType": "string",
          "name": "attribute",
          "type": "string"
        }
      ],
      "name": "AccessGranted",
      "type": "event"
    },
    {
      "anonymous": false,
      "inputs": [
        {
          "indexed": true,
          "internalType": "address",
          "name": "owner",
          "type": "address"
        },
        {
          "indexed": true,
          "internalType": "uint256",
          "name": "didIndex",
          "type": "uint256"
        },
        {
          "indexed": true,
          "internalType": "address",
          "name": "user",
          "type": "address"
        },
        {
          "indexed": false,
          "internalType": "string",
          "name": "attribute",
          "type": "string"
        }
      ],
      "name": "AccessRevoked",
      "type": "event"
    },
    {
      "anonymous": false,
      "inputs": [
        {
          "indexed": true,
          "internalType": "address",
          "name": "owner",
          "type": "address"
        },
        {
          "indexed": false,
          "internalType": "string",
          "name": "identifier",
          "type": "string"
        }
      ],
      "name": "DIDCreated",
      "type": "event"
    },
    {
      "inputs": [
        {
          "internalType": "uint256",
          "name": "",
          "type": "uint256"
        }
      ],
      "name": "aadharDetails",
      "outputs": [
        {
          "internalType": "string",
          "name": "name",
          "type": "string"
        },
        {
          "internalType": "string",
          "name": "dateOfBirth",
          "type": "string"
        },
        {
          "internalType": "string",
          "name": "gender",
          "type": "string"
        },
        {
          "internalType": "string",
          "name": "addr",
          "type": "string"
        },
        {
          "internalType": "string",
          "name": "photoHash",
          "type": "string"
        },
        {
          "internalType": "string",
          "name": "aadharNumber",
          "type": "string"
        }
      ],
      "stateMutability": "view",
      "type": "function"
    },
    {
      "inputs": [
        {
          "internalType": "address",
          "name": "",
          "type": "address"
        },
        {
          "internalType": "uint256",
          "name": "",
          "type": "uint256"
        },
        {
          "internalType": "address",
          "name": "",
          "type": "address"
        },
        {
          "internalType": "string",
          "name": "",
          "type": "string"
        }
      ],
      "name": "accessControl",
      "outputs": [
        {
          "internalType": "bool",
          "name": "",
          "type": "bool"
        }
      ],
      "stateMutability": "view",
      "type": "function"
    },
    {
      "inputs": [
        {
          "internalType": "string",
          "name": "identifier",
          "type": "string"
        },
        {
          "internalType": "string",
          "name": "name",
          "type": "string"
        },
        {
          "internalType": "string",
          "name": "dateOfBirth",
          "type": "string"
        },
        {
          "internalType": "string",
          "name": "gender",
          "type": "string"
        },
        {
          "internalType": "string",
          "name": "addr",
          "type": "string"
        },
        {
          "internalType": "string",
          "name": "photoHash",
          "type": "string"
        },
        {
          "internalType": "string",
          "name": "aadharNumber",
          "type": "string"
        }
      ],
      "name": "createAadharDID",
      "outputs": [],
      "stateMutability": "nonpayable",
      "type": "function"
    },
    {
      "inputs": [
        {
          "internalType": "address",
          "name": "owner",
          "type": "address"
        },
        {
          "internalType": "uint256",
          "name": "didIndex",
          "type": "uint256"
        },
        {
          "internalType": "string",
          "name": "attribute",
          "type": "string"
        }
      ],
      "name": "getAadharAttribute",
      "outputs": [
        {
          "internalType": "string",
          "name": "",
          "type": "string"
        }
      ],
      "stateMutability": "view",
      "type": "function"
    },
    {
      "inputs": [
        {
          "internalType": "address",
          "name": "owner",
          "type": "address"
        },
        {
          "internalType": "uint256",
          "name": "didIndex",
          "type": "uint256"
        }
      ],
      "name": "getAadharDetails",
      "outputs": [
        {
          "internalType": "string",
          "name": "identifier",
          "type": "string"
        },
        {
          "internalType": "string",
          "name": "name",
          "type": "string"
        },
        {
          "internalType": "string",
          "name": "dateOfBirth",
          "type": "string"
        },
        {
          "internalType": "string",
          "name": "gender",
          "type": "string"
        },
        {
          "internalType": "string",
          "name": "addr",
          "type": "string"
        },
        {
          "internalType": "string",
          "name": "photoHash",
          "type": "string"
        },
        {
          "internalType": "string",
          "name": "aadharNumber",
          "type": "string"
        },
        {
          "internalType": "bool",
          "name": "active",
          "type": "bool"
        },
        {
          "internalType": "uint256",
          "name": "createdAt",
          "type": "uint256"
        },
        {
          "internalType": "uint256",
          "name": "updatedAt",
          "type": "uint256"
        }
      ],
      "stateMutability": "view",
      "type": "function"
    },
    {
      "inputs": [
        {
          "internalType": "address",
          "name": "owner",
          "type": "address"
        }
      ],
      "name": "getUserDIDs",
      "outputs": [
        {
          "components": [
            {
              "internalType": "string",
              "name": "identifier",
              "type": "string"
            },
            {
              "internalType": "bool",
              "name": "active",
              "type": "bool"
            },
            {
              "internalType": "uint256",
              "name": "createdAt",
              "type": "uint256"
            },
            {
              "internalType": "uint256",
              "name": "updatedAt",
              "type": "uint256"
            }
          ],
          "internalType": "struct BaseDID.DID[]",
          "name": "",
          "type": "tuple[]"
        }
      ],
      "stateMutability": "view",
      "type": "function"
    },
    {
      "inputs": [
        {
          "internalType": "address",
          "name": "owner",
          "type": "address"
        },
        {
          "internalType": "uint256",
          "name": "didIndex",
          "type": "uint256"
        },
        {
          "internalType": "address",
          "name": "user",
          "type": "address"
        },
        {
          "internalType": "string",
          "name": "attribute",
          "type": "string"
        }
      ],
      "name": "hasAccess",
      "outputs": [
        {
          "internalType": "bool",
          "name": "",
          "type": "bool"
        }
      ],
      "stateMutability": "view",
      "type": "function"
    },
    {
      "inputs": [
        {
          "internalType": "uint256",
          "name": "didIndex",
          "type": "uint256"
        },
        {
          "internalType": "string",
          "name": "name",
          "type": "string"
        },
        {
          "internalType": "string",
          "name": "dateOfBirth",
          "type": "string"
        },
        {
          "internalType": "string",
          "name": "gender",
          "type": "string"
        },
        {
          "internalType": "string",
          "name": "addr",
          "type": "string"
        },
        {
          "internalType": "string",
          "name": "photoHash",
          "type": "string"
        },
        {
          "internalType": "string",
          "name": "aadharNumber",
          "type": "string"
        }
      ],
      "name": "updateAadharDetails",
      "outputs": [],
      "stateMutability": "nonpayable",
      "type": "function"
    },
    {
      "inputs": [
        {
          "internalType": "address",
          "name": "",
          "type": "address"
        },
        {
          "internalType": "uint256",
          "name": "",
          "type": "uint256"
        }
      ],
      "name": "userDIDs",
      "outputs": [
        {
          "internalType": "string",
          "name": "identifier",
          "type": "string"
        },
        {
          "internalType": "bool",
          "name": "active",
          "type": "bool"
        },
        {
          "internalType": "uint256",
          "name": "createdAt",
          "type": "uint256"
        },
        {
          "internalType": "uint256",
          "name": "updatedAt",
          "type": "uint256"
        }
      ],
      "stateMutability": "view",
      "type": "function"
    }
  ],
  "bytecode": "0x608060405234801561001057600080fd5b50612d3c806100206000396000f3fe608060405234801561001057600080fd5b50600436106100935760003560e01c80636aab3cef116100665780636aab3cef1461014d5780637052582314610180578063cfbb90a2146101b5578063f9a33258146101e5578063fb99d0071461020157610093565b80630d87c8271461009857806321c3948a146100b457806341638a5d146100e45780635e5a8d331461011d575b600080fd5b6100b260048036038101906100ad9190611e07565b610231565b005b6100ce60048036038101906100c99190611fcb565b61052d565b6040516100db91906121d0565b60405180910390f35b6100fe60048036038101906100f9919061221e565b61068b565b6040516101149a999897969594939291906122c6565b60405180910390f35b61013760048036038101906101329190612393565b610c48565b6040516101449190612402565b60405180910390f35b6101676004803603810190610162919061221e565b6112ab565b6040516101779493929190612424565b60405180910390f35b61019a60048036038101906101959190612470565b61138d565b6040516101ac9695949392919061249d565b60405180910390f35b6101cf60048036038101906101ca9190612528565b6116f9565b6040516101dc91906125ab565b60405180910390f35b6101ff60048036038101906101fa91906125c6565b611758565b005b61021b60048036038101906102169190612528565b611913565b60405161022891906125ab565b60405180910390f35b61023a876119d6565b600060016000803373ffffffffffffffffffffffffffffffffffffffff1673ffffffffffffffffffffffffffffffffffffffff1681526020019081526020016000208054905061028a919061273f565b90506040518060c00160405280888152602001878152602001868152602001858152602001848152602001838152506002600083815260200190815260200160002060008201518160000190816102e1919061297f565b5060208201518160010190816102f7919061297f565b50604082015181600201908161030d919061297f565b506060820151816003019081610323919061297f565b506080820151816004019081610339919061297f565b5060a082015181600501908161034f919061297f565b5090505061039381336040518060400160405280600481526020017f6e616d6500000000000000000000000000000000000000000000000000000000815250611afe565b6103d381336040518060400160405280600b81526020017f646174654f664269727468000000000000000000000000000000000000000000815250611afe565b61041381336040518060400160405280600681526020017f67656e6465720000000000000000000000000000000000000000000000000000815250611afe565b61045381336040518060400160405280600481526020017f6164647200000000000000000000000000000000000000000000000000000000815250611afe565b61049381336040518060400160405280600981526020017f70686f746f486173680000000000000000000000000000000000000000000000815250611afe565b6104d381336040518060400160405280600c81526020017f6161646861724e756d6265720000000000000000000000000000000000000000815250611afe565b3373ffffffffffffffffffffffffffffffffffffffff167fd7bfea0f84831ed6c4da58ac5fbee70468418290e9bc08e9bab5bc2dac72dc4e898460405161051b929190612a51565b60405180910390a25050505050505050565b60606000808373ffffffffffffffffffffffffffffffffffffffff1673ffffffffffffffffffffffffffffffffffffffff168152602001908152602001600020805480602002602001604051908101604052809291908181526020016000905b8282101561068057838290600052602060002090600402016040518060800160405290816000820180546105c0906127a2565b80601f01602080910402602001604051908101604052809291908181526020018280546105ec906127a2565b80156106395780601f1061060e57610100808354040283529160200191610639565b820191906000526020600020905b81548152906001019060200180831161061c57829003601f168201915b505050505081526020016001820160009054906101000a900460ff16151515158152602001600282015481526020016003820154815250508152602001906001019061058d565b505050509050919050565b606080606080606080606060008060008060008d73ffffffffffffffffffffffffffffffffffffffff1673ffffffffffffffffffffffffffffffffffffffff168152602001908152602001600020805490508b1061071e576040517f08c379a000000000000000000000000000000000000000000000000000000000815260040161071590612ad4565b60405180910390fd5b61075f8c8c336040518060400160405280600481526020017f6e616d6500000000000000000000000000000000000000000000000000000000815250611913565b61079e576040517f08c379a000000000000000000000000000000000000000000000000000000000815260040161079590612b66565b60405180910390fd5b60008060008e73ffffffffffffffffffffffffffffffffffffffff1673ffffffffffffffffffffffffffffffffffffffff1681526020019081526020016000208c815481106107f0576107ef612b86565b5b906000526020600020906004020190506000600260008e81526020019081526020016000209050816000018160000182600101836002018460030185600401866005018860010160009054906101000a900460ff1689600201548a6003015489805461085b906127a2565b80601f0160208091040260200160405190810160405280929190818152602001828054610887906127a2565b80156108d45780601f106108a9576101008083540402835291602001916108d4565b820191906000526020600020905b8154815290600101906020018083116108b757829003601f168201915b505050505099508880546108e7906127a2565b80601f0160208091040260200160405190810160405280929190818152602001828054610913906127a2565b80156109605780601f1061093557610100808354040283529160200191610960565b820191906000526020600020905b81548152906001019060200180831161094357829003601f168201915b50505050509850878054610973906127a2565b80601f016020809104026020016040519081016040528092919081815260200182805461099f906127a2565b80156109ec5780601f106109c1576101008083540402835291602001916109ec565b820191906000526020600020905b8154815290600101906020018083116109cf57829003601f168201915b505050505097508680546109ff906127a2565b80601f0160208091040260200160405190810160405280929190818152602001828054610a2b906127a2565b8015610a785780601f10610a4d57610100808354040283529160200191610a78565b820191906000526020600020905b815481529060010190602001808311610a5b57829003601f168201915b50505050509650858054610a8b906127a2565b80601f0160208091040260200160405190810160405280929190818152602001828054610ab7906127a2565b8015610b045780601f10610ad957610100808354040283529160200191610b04565b820191906000526020600020905b815481529060010190602001808311610ae757829003601f168201915b50505050509550848054610b17906127a2565b80601f0160208091040260200160405190810160405280929190818152602001828054610b43906127a2565b8015610b905780601f10610b6557610100808354040283529160200191610b90565b820191906000526020600020905b815481529060010190602001808311610b7357829003601f168201915b50505050509450838054610ba3906127a2565b80601f0160208091040260200160405190810160405280929190818152602001828054610bcf906127a2565b8015610c1c5780601f10610bf157610100808354040283529160200191610c1c565b820191906000526020600020905b815481529060010190602001808311610bff57829003601f168201915b505050505093509b509b509b509b509b509b509b509b509b509b5050509295989b9194979a5092959850565b60606000808573ffffffffffffffffffffffffffffffffffffffff1673ffffffffffffffffffffffffffffffffffffffff168152602001908152602001600020805490508310610ccd576040517f08c379a0000000000000000000000000000000000000000000000000000000008152600401610cc490612ad4565b60405180910390fd5b610cd984843385611913565b610d18576040517f08c379a0000000000000000000000000000000000000000000000000000000008152600401610d0f90612c27565b60405180910390fd5b60006002600085815260200190815260200160002090506040518060400160405280600481526020017f6e616d650000000000000000000000000000000000000000000000000000000081525080519060200120838051906020012003610e0e57806000018054610d88906127a2565b80601f0160208091040260200160405190810160405280929190818152602001828054610db4906127a2565b8015610e015780601f10610dd657610100808354040283529160200191610e01565b820191906000526020600020905b815481529060010190602001808311610de457829003601f168201915b50505050509150506112a4565b6040518060400160405280600b81526020017f646174654f66426972746800000000000000000000000000000000000000000081525080519060200120838051906020012003610eed57806001018054610e67906127a2565b80601f0160208091040260200160405190810160405280929190818152602001828054610e93906127a2565b8015610ee05780601f10610eb557610100808354040283529160200191610ee0565b820191906000526020600020905b815481529060010190602001808311610ec357829003601f168201915b50505050509150506112a4565b6040518060400160405280600681526020017f67656e646572000000000000000000000000000000000000000000000000000081525080519060200120838051906020012003610fcc57806002018054610f46906127a2565b80601f0160208091040260200160405190810160405280929190818152602001828054610f72906127a2565b8015610fbf5780601f10610f9457610100808354040283529160200191610fbf565b820191906000526020600020905b815481529060010190602001808311610fa257829003601f168201915b50505050509150506112a4565b6040518060400160405280600481526020017f6164647200000000000000000000000000000000000000000000000000000000815250805190602001208380519060200120036110ab57806003018054611025906127a2565b80601f0160208091040260200160405190810160405280929190818152602001828054611051906127a2565b801561109e5780601f106110735761010080835404028352916020019161109e565b820191906000526020600020905b81548152906001019060200180831161108157829003601f168201915b50505050509150506112a4565b6040518060400160405280600981526020017f70686f746f4861736800000000000000000000000000000000000000000000008152508051906020012083805190602001200361118a57806004018054611104906127a2565b80601f0160208091040260200160405190810160405280929190818152602001828054611130906127a2565b801561117d5780601f106111525761010080835404028352916020019161117d565b820191906000526020600020905b81548152906001019060200180831161116057829003601f168201915b50505050509150506112a4565b6040518060400160405280600c81526020017f6161646861724e756d626572000000000000000000000000000000000000000081525080519060200120838051906020012003611269578060050180546111e3906127a2565b80601f016020809104026020016040519081016040528092919081815260200182805461120f906127a2565b801561125c5780601f106112315761010080835404028352916020019161125c565b820191906000526020600020905b81548152906001019060200180831161123f57829003601f168201915b50505050509150506112a4565b6040517f08c379a000000000000000000000000000000000000000000000000000000000815260040161129b90612c93565b60405180910390fd5b9392505050565b600060205281600052604060002081815481106112c757600080fd5b9060005260206000209060040201600091509150508060000180546112eb906127a2565b80601f0160208091040260200160405190810160405280929190818152602001828054611317906127a2565b80156113645780601f1061133957610100808354040283529160200191611364565b820191906000526020600020905b81548152906001019060200180831161134757829003601f168201915b5050505050908060010160009054906101000a900460ff16908060020154908060030154905084565b60026020528060005260406000206000915090508060000180546113b0906127a2565b80601f01602080910402602001604051908101604052809291908181526020018280546113dc906127a2565b80156114295780601f106113fe57610100808354040283529160200191611429565b820191906000526020600020905b81548152906001019060200180831161140c57829003601f168201915b50505050509080600101805461143e906127a2565b80601f016020809104026020016040519081016040528092919081815260200182805461146a906127a2565b80156114b75780601f1061148c576101008083540402835291602001916114b7565b820191906000526020600020905b81548152906001019060200180831161149a57829003601f168201915b5050505050908060020180546114cc906127a2565b80601f01602080910402602001604051908101604052809291908181526020018280546114f8906127a2565b80156115455780601f1061151a57610100808354040283529160200191611545565b820191906000526020600020905b81548152906001019060200180831161152857829003601f168201915b50505050509080600301805461155a906127a2565b80601f0160208091040260200160405190810160405280929190818152602001828054611586906127a2565b80156115d35780601f106115a8576101008083540402835291602001916115d3565b820191906000526020600020905b8154815290600101906020018083116115b657829003601f168201915b5050505050908060040180546115e8906127a2565b80601f0160208091040260200160405190810160405280929190818152602001828054611614906127a2565b80156116615780601f1061163657610100808354040283529160200191611661565b820191906000526020600020905b81548152906001019060200180831161164457829003601f168201915b505050505090806005018054611676906127a2565b80601f01602080910402602001604051908101604052809291908181526020018280546116a2906127a2565b80156116ef5780601f106116c4576101008083540402835291602001916116ef565b820191906000526020600020905b8154815290600101906020018083116116d257829003601f168201915b5050505050905086565b60016020528360005260406000206020528260005260406000206020528160005260406000208180516020810182018051848252602083016020850120818352809550505050505060009350935050509054906101000a900460ff1681565b866000803373ffffffffffffffffffffffffffffffffffffffff1673ffffffffffffffffffffffffffffffffffffffff1681526020019081526020016000208054905081106117dc576040517f08c379a00000000000000000000000000000000000000000000000000000000081526004016117d390612ad4565b60405180910390fd5b6040518060c0016040528088815260200187815260200186815260200185815260200184815260200183815250600260008a81526020019081526020016000206000820151816000019081611831919061297f565b506020820151816001019081611847919061297f565b50604082015181600201908161185d919061297f565b506060820151816003019081611873919061297f565b506080820151816004019081611889919061297f565b5060a082015181600501908161189f919061297f565b50905050426000803373ffffffffffffffffffffffffffffffffffffffff1673ffffffffffffffffffffffffffffffffffffffff16815260200190815260200160002089815481106118f4576118f3612b86565b5b9060005260206000209060040201600301819055505050505050505050565b6000600160008673ffffffffffffffffffffffffffffffffffffffff1673ffffffffffffffffffffffffffffffffffffffff168152602001908152602001600020600085815260200190815260200160002060008473ffffffffffffffffffffffffffffffffffffffff1673ffffffffffffffffffffffffffffffffffffffff168152602001908152602001600020826040516119b09190612cef565b908152602001604051809103902060009054906101000a900460ff169050949350505050565b6000803373ffffffffffffffffffffffffffffffffffffffff1673ffffffffffffffffffffffffffffffffffffffff16815260200190815260200160002060405180608001604052808381526020016001151581526020014281526020014281525090806001815401808255809150506001900390600052602060002090600402016000909190919091506000820151816000019081611a76919061297f565b5060208201518160010160006101000a81548160ff021916908315150217905550604082015181600201556060820151816003015550503373ffffffffffffffffffffffffffffffffffffffff167f1b7934654ba536b6962955e057ce42885353bbaad8c605a5ce0678e632f2841082604051611af39190612402565b60405180910390a250565b6000803373ffffffffffffffffffffffffffffffffffffffff1673ffffffffffffffffffffffffffffffffffffffff168152602001908152602001600020805490508310611b81576040517f08c379a0000000000000000000000000000000000000000000000000000000008152600401611b7890612ad4565b60405180910390fd5b60018060003373ffffffffffffffffffffffffffffffffffffffff1673ffffffffffffffffffffffffffffffffffffffff168152602001908152602001600020600085815260200190815260200160002060008473ffffffffffffffffffffffffffffffffffffffff1673ffffffffffffffffffffffffffffffffffffffff16815260200190815260200160002082604051611c1d9190612cef565b908152602001604051809103902060006101000a81548160ff0219169083151502179055508173ffffffffffffffffffffffffffffffffffffffff16833373ffffffffffffffffffffffffffffffffffffffff167f3cda54c87ddb222709d1b440f54128d15afc0d690eab918e10eb009e8c819ed984604051611ca09190612402565b60405180910390a4505050565b6000604051905090565b600080fd5b600080fd5b600080fd5b600080fd5b6000601f19601f8301169050919050565b7f4e487b7100000000000000000000000000000000000000000000000000000000600052604160045260246000fd5b611d1482611ccb565b810181811067ffffffffffffffff82111715611d3357611d32611cdc565b5b80604052505050565b6000611d46611cad565b9050611d528282611d0b565b919050565b600067ffffffffffffffff821115611d7257611d71611cdc565b5b611d7b82611ccb565b9050602081019050919050565b82818337600083830152505050565b6000611daa611da584611d57565b611d3c565b905082815260208101848484011115611dc657611dc5611cc6565b5b611dd1848285611d88565b509392505050565b600082601f830112611dee57611ded611cc1565b5b8135611dfe848260208601611d97565b91505092915050565b600080600080600080600060e0888a031215611e2657611e25611cb7565b5b600088013567ffffffffffffffff811115611e4457611e43611cbc565b5b611e508a828b01611dd9565b975050602088013567ffffffffffffffff811115611e7157611e70611cbc565b5b611e7d8a828b01611dd9565b965050604088013567ffffffffffffffff811115611e9e57611e9d611cbc565b5b611eaa8a828b01611dd9565b955050606088013567ffffffffffffffff811115611ecb57611eca611cbc565b5b611ed78a828b01611dd9565b945050608088013567ffffffffffffffff811115611ef857611ef7611cbc565b5b611f048a828b01611dd9565b93505060a088013567ffffffffffffffff811115611f2557611f24611cbc565b5b611f318a828b01611dd9565b92505060c088013567ffffffffffffffff811115611f5257611f51611cbc565b5b611f5e8a828b01611dd9565b91505092959891949750929550565b600073ffffffffffffffffffffffffffffffffffffffff82169050919050565b6000611f9882611f6d565b9050919050565b611fa881611f8d565b8114611fb357600080fd5b50565b600081359050611fc581611f9f565b92915050565b600060208284031215611fe157611fe0611cb7565b5b6000611fef84828501611fb6565b91505092915050565b600081519050919050565b600082825260208201905092915050565b6000819050602082019050919050565b600081519050919050565b600082825260208201905092915050565b60005b8381101561205e578082015181840152602081019050612043565b60008484015250505050565b600061207582612024565b61207f818561202f565b935061208f818560208601612040565b61209881611ccb565b840191505092915050565b60008115159050919050565b6120b8816120a3565b82525050565b6000819050919050565b6120d1816120be565b82525050565b600060808301600083015184820360008601526120f4828261206a565b915050602083015161210960208601826120af565b50604083015161211c60408601826120c8565b50606083015161212f60608601826120c8565b508091505092915050565b600061214683836120d7565b905092915050565b6000602082019050919050565b600061216682611ff8565b6121708185612003565b93508360208202850161218285612014565b8060005b858110156121be578484038952815161219f858261213a565b94506121aa8361214e565b925060208a01995050600181019050612186565b50829750879550505050505092915050565b600060208201905081810360008301526121ea818461215b565b905092915050565b6121fb816120be565b811461220657600080fd5b50565b600081359050612218816121f2565b92915050565b6000806040838503121561223557612234611cb7565b5b600061224385828601611fb6565b925050602061225485828601612209565b9150509250929050565b600082825260208201905092915050565b600061227a82612024565b612284818561225e565b9350612294818560208601612040565b61229d81611ccb565b840191505092915050565b6122b1816120a3565b82525050565b6122c0816120be565b82525050565b60006101408201905081810360008301526122e1818d61226f565b905081810360208301526122f5818c61226f565b90508181036040830152612309818b61226f565b9050818103606083015261231d818a61226f565b90508181036080830152612331818961226f565b905081810360a0830152612345818861226f565b905081810360c0830152612359818761226f565b905061236860e08301866122a8565b6123766101008301856122b7565b6123846101208301846122b7565b9b9a5050505050505050505050565b6000806000606084860312156123ac576123ab611cb7565b5b60006123ba86828701611fb6565b93505060206123cb86828701612209565b925050604084013567ffffffffffffffff8111156123ec576123eb611cbc565b5b6123f886828701611dd9565b9150509250925092565b6000602082019050818103600083015261241c818461226f565b905092915050565b6000608082019050818103600083015261243e818761226f565b905061244d60208301866122a8565b61245a60408301856122b7565b61246760608301846122b7565b95945050505050565b60006020828403121561248657612485611cb7565b5b600061249484828501612209565b91505092915050565b600060c08201905081810360008301526124b7818961226f565b905081810360208301526124cb818861226f565b905081810360408301526124df818761226f565b905081810360608301526124f3818661226f565b90508181036080830152612507818561226f565b905081810360a083015261251b818461226f565b9050979650505050505050565b6000806000806080858703121561254257612541611cb7565b5b600061255087828801611fb6565b945050602061256187828801612209565b935050604061257287828801611fb6565b925050606085013567ffffffffffffffff81111561259357612592611cbc565b5b61259f87828801611dd9565b91505092959194509250565b60006020820190506125c060008301846122a8565b92915050565b600080600080600080600060e0888a0312156125e5576125e4611cb7565b5b60006125f38a828b01612209565b975050602088013567ffffffffffffffff81111561261457612613611cbc565b5b6126208a828b01611dd9565b965050604088013567ffffffffffffffff81111561264157612640611cbc565b5b61264d8a828b01611dd9565b955050606088013567ffffffffffffffff81111561266e5761266d611cbc565b5b61267a8a828b01611dd9565b945050608088013567ffffffffffffffff81111561269b5761269a611cbc565b5b6126a78a828b01611dd9565b93505060a088013567ffffffffffffffff8111156126c8576126c7611cbc565b5b6126d48a828b01611dd9565b92505060c088013567ffffffffffffffff8111156126f5576126f4611cbc565b5b6127018a828b01611dd9565b91505092959891949750929550565b7f4e487b7100000000000000000000000000000000000000000000000000000000600052601160045260246000fd5b600061274a826120be565b9150612755836120be565b925082820390508181111561276d5761276c612710565b5b92915050565b7f4e487b7100000000000000000000000000000000000000000000000000000000600052602260045260246000fd5b600060028204905060018216806127ba57607f821691505b6020821081036127cd576127cc612773565b5b50919050565b60008190508160005260206000209050919050565b60006020601f8301049050919050565b600082821b905092915050565b6000600883026128357fffffffffffffffffffffffffffffffffffffffffffffffffffffffffffffffff826127f8565b61283f86836127f8565b95508019841693508086168417925050509392505050565b6000819050919050565b600061287c612877612872846120be565b612857565b6120be565b9050919050565b6000819050919050565b61289683612861565b6128aa6128a282612883565b848454612805565b825550505050565b600090565b6128bf6128b2565b6128ca81848461288d565b505050565b5b818110156128ee576128e36000826128b7565b6001810190506128d0565b5050565b601f82111561293357612904816127d3565b61290d846127e8565b8101602085101561291c578190505b612930612928856127e8565b8301826128cf565b50505b505050565b600082821c905092915050565b600061295660001984600802612938565b1980831691505092915050565b600061296f8383612945565b9150826002028217905092915050565b61298882612024565b67ffffffffffffffff8111156129a1576129a0611cdc565b5b6129ab82546127a2565b6129b68282856128f2565b600060209050601f8311600181146129e957600084156129d7578287015190505b6129e18582612963565b865550612a49565b601f1984166129f7866127d3565b60005b82811015612a1f578489015182556001820191506020850194506020810190506129fa565b86831015612a3c5784890151612a38601f891682612945565b8355505b6001600288020188555050505b505050505050565b60006040820190508181036000830152612a6b818561226f565b90508181036020830152612a7f818461226f565b90509392505050565b7f44494420646f6573206e6f742065786973740000000000000000000000000000600082015250565b6000612abe60128361225e565b9150612ac982612a88565b602082019050919050565b60006020820190508181036000830152612aed81612ab1565b9050919050565b7f4e6f7420617574686f72697a656420746f20616363657373204161646861722060008201527f64657461696c7300000000000000000000000000000000000000000000000000602082015250565b6000612b5060278361225e565b9150612b5b82612af4565b604082019050919050565b60006020820190508181036000830152612b7f81612b43565b9050919050565b7f4e487b7100000000000000000000000000000000000000000000000000000000600052603260045260246000fd5b7f4e6f7420617574686f72697a656420746f20616363657373207468697320617460008201527f7472696275746500000000000000000000000000000000000000000000000000602082015250565b6000612c1160278361225e565b9150612c1c82612bb5565b604082019050919050565b60006020820190508181036000830152612c4081612c04565b9050919050565b7f496e76616c696420617474726962757465000000000000000000000000000000600082015250565b6000612c7d60118361225e565b9150612c8882612c47565b602082019050919050565b60006020820190508181036000830152612cac81612c70565b9050919050565b600081905092915050565b6000612cc982612024565b612cd38185612cb3565b9350612ce3818560208601612040565b80840191505092915050565b6000612cfb8284612cbe565b91508190509291505056fea264697066735822122095006e8d4afe4026e205d347f2935e7a80c723164d0ff9d85078a10eab30ca3e64736f6c63430008140033",
  "linkReferences": {},
  "deployedLinkReferences": {}
}