{
  "_format": "hh-sol-artifact-1",
  "contractName": "DIDRegistry",
  "sourceName": "contracts/DIDRegistry.sol",
  "abi": [
    {
      "anonymous": false,
      "inputs": [
        {
          "indexed": true,
          "internalType": "address",
          "name": "user",
          "type": "address"
        },
        {
          "indexed": false,
          "internalType": "bytes32",
          "name": "didHash",
          "type": "bytes32"
        }
      ],
      "name": "DIDIssued",
      "type": "event"
    },
    {
      "anonymous": false,
      "inputs": [
        {
          "indexed": true,
          "internalType": "address",
          "name": "user",
          "type": "address"
        },
        {
          "indexed": false,
          "internalType": "bytes32",
          "name": "newDIDHash",
          "type": "bytes32"
        }
      ],
      "name": "DIDUpdated",
      "type": "event"
    },
    {
      "inputs": [
        {
          "internalType": "address",
          "name": "",
          "type": "address"
        }
      ],
      "name": "dids",
      "outputs": [
        {
          "internalType": "bytes32",
          "name": "didHash",
          "type": "bytes32"
        },
        {
          "internalType": "address",
          "name": "owner",
          "type": "address"
        }
      ],
      "stateMutability": "view",
      "type": "function"
    },
    {
      "inputs": [
        {
          "internalType": "bytes32",
          "name": "didHash",
          "type": "bytes32"
        }
      ],
      "name": "issueDID",
      "outputs": [],
      "stateMutability": "nonpayable",
      "type": "function"
    },
    {
      "inputs": [
        {
          "internalType": "address",
          "name": "user",
          "type": "address"
        }
      ],
      "name": "resolveDID",
      "outputs": [
        {
          "internalType": "bytes32",
          "name": "",
          "type": "bytes32"
        }
      ],
      "stateMutability": "view",
      "type": "function"
    },
    {
      "inputs": [
        {
          "internalType": "bytes32",
          "name": "newDIDHash",
          "type": "bytes32"
        }
      ],
      "name": "updateDID",
      "outputs": [],
      "stateMutability": "nonpayable",
      "type": "function"
    }
  ],
  "bytecode": "0x608060405234801561001057600080fd5b5061069e806100206000396000f3fe608060405234801561001057600080fd5b506004361061004c5760003560e01c806326593d71146100515780633593f81b1461006d57806356353ef11461009e578063e627dcb6146100ba575b600080fd5b61006b60048036038101906100669190610465565b6100ea565b005b610087600480360381019061008291906104f0565b610207565b60405161009592919061053b565b60405180910390f35b6100b860048036038101906100b39190610465565b61024b565b005b6100d460048036038101906100cf91906104f0565b6103df565b6040516100e19190610564565b60405180910390f35b6000801b6000803373ffffffffffffffffffffffffffffffffffffffff1673ffffffffffffffffffffffffffffffffffffffff1681526020019081526020016000206000015403610170576040517f08c379a0000000000000000000000000000000000000000000000000000000008152600401610167906105dc565b60405180910390fd5b806000803373ffffffffffffffffffffffffffffffffffffffff1673ffffffffffffffffffffffffffffffffffffffff168152602001908152602001600020600001819055503373ffffffffffffffffffffffffffffffffffffffff167f59c1474d45b6dafc1b2fe740b741ce1371d018996e63e9a86ad283563820452c826040516101fc9190610564565b60405180910390a250565b60006020528060005260406000206000915090508060000154908060010160009054906101000a900473ffffffffffffffffffffffffffffffffffffffff16905082565b6000801b6000803373ffffffffffffffffffffffffffffffffffffffff1673ffffffffffffffffffffffffffffffffffffffff16815260200190815260200160002060000154146102d1576040517f08c379a00000000000000000000000000000000000000000000000000000000081526004016102c890610648565b60405180910390fd5b60405180604001604052808281526020013373ffffffffffffffffffffffffffffffffffffffff168152506000803373ffffffffffffffffffffffffffffffffffffffff1673ffffffffffffffffffffffffffffffffffffffff1681526020019081526020016000206000820151816000015560208201518160010160006101000a81548173ffffffffffffffffffffffffffffffffffffffff021916908373ffffffffffffffffffffffffffffffffffffffff1602179055509050503373ffffffffffffffffffffffffffffffffffffffff167f1f225f34024db56263c469aed377e2f2be42e4223d2c9cb55d825cad7a6668a8826040516103d49190610564565b60405180910390a250565b60008060008373ffffffffffffffffffffffffffffffffffffffff1673ffffffffffffffffffffffffffffffffffffffff168152602001908152602001600020600001549050919050565b600080fd5b6000819050919050565b6104428161042f565b811461044d57600080fd5b50565b60008135905061045f81610439565b92915050565b60006020828403121561047b5761047a61042a565b5b600061048984828501610450565b91505092915050565b600073ffffffffffffffffffffffffffffffffffffffff82169050919050565b60006104bd82610492565b9050919050565b6104cd816104b2565b81146104d857600080fd5b50565b6000813590506104ea816104c4565b92915050565b6000602082840312156105065761050561042a565b5b6000610514848285016104db565b91505092915050565b6105268161042f565b82525050565b610535816104b2565b82525050565b6000604082019050610550600083018561051d565b61055d602083018461052c565b9392505050565b6000602082019050610579600083018461051d565b92915050565b600082825260208201905092915050565b7f444944206e6f7420666f756e6400000000000000000000000000000000000000600082015250565b60006105c6600d8361057f565b91506105d182610590565b602082019050919050565b600060208201905081810360008301526105f5816105b9565b9050919050565b7f44494420616c7265616479206578697374730000000000000000000000000000600082015250565b600061063260128361057f565b915061063d826105fc565b602082019050919050565b6000602082019050818103600083015261066181610625565b905091905056fea264697066735822122044d0122336042a4199018e054520cd06c3e11db3f82920c9afa35bc09f46ad7664736f6c63430008140033",
  "linkReferences": {},
  "deployedLinkReferences": {}
}